{
  "contractName": "OwlCatMarketPlace",
  "abi": [
    {
      "inputs": [
        {
          "internalType": "address",
          "name": "_owlCatContractAddress",
          "type": "address"
        }
      ],
      "stateMutability": "nonpayable",
      "type": "constructor"
    },
    {
      "anonymous": false,
      "inputs": [
        {
          "indexed": false,
          "internalType": "string",
          "name": "TxType",
          "type": "string"
        },
        {
          "indexed": false,
          "internalType": "address",
          "name": "owner",
          "type": "address"
        },
        {
          "indexed": false,
          "internalType": "uint256",
          "name": "tokenId",
          "type": "uint256"
        }
      ],
      "name": "MarketTransaction",
      "type": "event"
    },
    {
      "inputs": [
        {
          "internalType": "address",
          "name": "_owlCatContractAddress",
          "type": "address"
        }
      ],
      "name": "setOwlCatContract",
      "outputs": [],
      "stateMutability": "nonpayable",
      "type": "function"
    },
    {
      "inputs": [
        {
          "internalType": "uint256",
          "name": "_tokenId",
          "type": "uint256"
        }
      ],
      "name": "getOffer",
      "outputs": [
        {
          "internalType": "address",
          "name": "seller",
          "type": "address"
        },
        {
          "internalType": "uint256",
          "name": "price",
          "type": "uint256"
        },
        {
          "internalType": "uint256",
          "name": "index",
          "type": "uint256"
        },
        {
          "internalType": "uint256",
          "name": "tokenId",
          "type": "uint256"
        },
        {
          "internalType": "bool",
          "name": "active",
          "type": "bool"
        }
      ],
      "stateMutability": "view",
      "type": "function",
      "constant": true
    },
    {
      "inputs": [],
      "name": "getAllTokenOnSale",
      "outputs": [
        {
          "internalType": "uint256[]",
          "name": "listOfOffers",
          "type": "uint256[]"
        }
      ],
      "stateMutability": "view",
      "type": "function",
      "constant": true
    },
    {
      "inputs": [
        {
          "internalType": "uint256",
          "name": "_price",
          "type": "uint256"
        },
        {
          "internalType": "uint256",
          "name": "_tokenId",
          "type": "uint256"
        }
      ],
      "name": "setOffer",
      "outputs": [],
      "stateMutability": "nonpayable",
      "type": "function"
    },
    {
      "inputs": [
        {
          "internalType": "uint256",
          "name": "_tokenId",
          "type": "uint256"
        }
      ],
      "name": "removeOffer",
      "outputs": [],
      "stateMutability": "nonpayable",
      "type": "function"
    },
    {
      "inputs": [
        {
          "internalType": "uint256",
          "name": "_tokenId",
          "type": "uint256"
        }
      ],
      "name": "buyOwlCat",
      "outputs": [],
      "stateMutability": "payable",
      "type": "function",
      "payable": true
    }
  ],
  "bytecode": "0x60806040523480156200001157600080fd5b5060405162001a0538038062001a058339818101604052810190620000379190620001ce565b336000806101000a81548173ffffffffffffffffffffffffffffffffffffffff021916908373ffffffffffffffffffffffffffffffffffffffff16021790555062000088816200008f60201b60201c565b5062000283565b60008054906101000a900473ffffffffffffffffffffffffffffffffffffffff1673ffffffffffffffffffffffffffffffffffffffff163373ffffffffffffffffffffffffffffffffffffffff161462000120576040517f08c379a0000000000000000000000000000000000000000000000000000000008152600401620001179062000261565b60405180910390fd5b80600160006101000a81548173ffffffffffffffffffffffffffffffffffffffff021916908373ffffffffffffffffffffffffffffffffffffffff16021790555050565b600080fd5b600073ffffffffffffffffffffffffffffffffffffffff82169050919050565b6000620001968262000169565b9050919050565b620001a88162000189565b8114620001b457600080fd5b50565b600081519050620001c8816200019d565b92915050565b600060208284031215620001e757620001e662000164565b5b6000620001f784828501620001b7565b91505092915050565b600082825260208201905092915050565b7f596f75206d75737420626520746865204f776c4361742773204f776e65722021600082015250565b60006200024960208362000200565b9150620002568262000211565b602082019050919050565b600060208201905081810360008301526200027c816200023a565b9050919050565b61177280620002936000396000f3fe6080604052600436106100555760003560e01c80630fdb897c1461005a5780634579268a1461008357806349b3709f146100c4578063941b055b146100ef57806395a0f9c714610118578063c7bc05fe14610141575b600080fd5b34801561006657600080fd5b50610081600480360381019061007c9190610dcc565b61015d565b005b34801561008f57600080fd5b506100aa60048036038101906100a59190610e2f565b61022f565b6040516100bb959493929190610e95565b60405180910390f35b3480156100d057600080fd5b506100d96102a7565b6040516100e69190610fa6565b60405180910390f35b3480156100fb57600080fd5b5061011660048036038101906101119190610fc8565b610408565b005b34801561012457600080fd5b5061013f600480360381019061013a9190610e2f565b61076e565b005b61015b60048036038101906101569190610e2f565b610979565b005b60008054906101000a900473ffffffffffffffffffffffffffffffffffffffff1673ffffffffffffffffffffffffffffffffffffffff163373ffffffffffffffffffffffffffffffffffffffff16146101eb576040517f08c379a00000000000000000000000000000000000000000000000000000000081526004016101e290611065565b60405180910390fd5b80600160006101000a81548173ffffffffffffffffffffffffffffffffffffffff021916908373ffffffffffffffffffffffffffffffffffffffff16021790555050565b6000806000806000806003600088815260200190815260200160002090508060000160009054906101000a900473ffffffffffffffffffffffffffffffffffffffff168160010154826002015483600301548460040160009054906101000a900460ff16955095509550955095505091939590929450565b606060006002805490509050600081141561030e57600067ffffffffffffffff8111156102d7576102d6611085565b5b6040519080825280602002602001820160405280156103055781602001602082028036833780820191505090505b50915050610405565b60008167ffffffffffffffff81111561032a57610329611085565b5b6040519080825280602002602001820160405280156103585781602001602082028036833780820191505090505b50905060005b828110156103fe57600115156002828154811061037e5761037d6110b4565b5b906000526020600020906005020160040160009054906101000a900460ff16151514156103eb57600281815481106103b9576103b86110b4565b5b9060005260206000209060050201600301548282815181106103de576103dd6110b4565b5b6020026020010181815250505b80806103f690611112565b91505061035e565b8193505050505b90565b6104123382610c95565b610451576040517f08c379a0000000000000000000000000000000000000000000000000000000008152600401610448906111a7565b60405180910390fd5b600015156003600083815260200190815260200160002060040160009054906101000a900460ff161515146104bb576040517f08c379a00000000000000000000000000000000000000000000000000000000081526004016104b290611239565b60405180910390fd5b600160009054906101000a900473ffffffffffffffffffffffffffffffffffffffff1673ffffffffffffffffffffffffffffffffffffffff1663e985e9c533306040518363ffffffff1660e01b8152600401610518929190611259565b602060405180830381865afa158015610535573d6000803e3d6000fd5b505050506040513d601f19601f8201168201806040525081019061055991906112ae565b610598576040517f08c379a000000000000000000000000000000000000000000000000000000000815260040161058f90611327565b60405180910390fd5b60006040518060a001604052803373ffffffffffffffffffffffffffffffffffffffff1681526020018481526020016002805490508152602001838152602001600115158152509050806003600084815260200190815260200160002060008201518160000160006101000a81548173ffffffffffffffffffffffffffffffffffffffff021916908373ffffffffffffffffffffffffffffffffffffffff16021790555060208201518160010155604082015181600201556060820151816003015560808201518160040160006101000a81548160ff021916908315150217905550905050600281908060018154018082558091505060019003906000526020600020906005020160009091909190915060008201518160000160006101000a81548173ffffffffffffffffffffffffffffffffffffffff021916908373ffffffffffffffffffffffffffffffffffffffff16021790555060208201518160010155604082015181600201556060820151816003015560808201518160040160006101000a81548160ff02191690831515021790555050507fd99e4fad9ad6313b1feb588fa8e605e3a9873172f2024330c35dd2b4041a43863383604051610761929190611393565b60405180910390a1505050565b6000600360008381526020019081526020016000206040518060a00160405290816000820160009054906101000a900473ffffffffffffffffffffffffffffffffffffffff1673ffffffffffffffffffffffffffffffffffffffff1673ffffffffffffffffffffffffffffffffffffffff1681526020016001820154815260200160028201548152602001600382015481526020016004820160009054906101000a900460ff16151515158152505090503373ffffffffffffffffffffffffffffffffffffffff16816000015173ffffffffffffffffffffffffffffffffffffffff1614610891576040517f08c379a000000000000000000000000000000000000000000000000000000000815260040161088890611441565b60405180910390fd5b60036000838152602001908152602001600020600080820160006101000a81549073ffffffffffffffffffffffffffffffffffffffff02191690556001820160009055600282016000905560038201600090556004820160006101000a81549060ff0219169055505060006002826040015181548110610914576109136110b4565b5b906000526020600020906005020160040160006101000a81548160ff0219169083151502179055507fd99e4fad9ad6313b1feb588fa8e605e3a9873172f2024330c35dd2b4041a4386338360405161096d9291906114ad565b60405180910390a15050565b6000600360008381526020019081526020016000206040518060a00160405290816000820160009054906101000a900473ffffffffffffffffffffffffffffffffffffffff1673ffffffffffffffffffffffffffffffffffffffff1673ffffffffffffffffffffffffffffffffffffffff1681526020016001820154815260200160028201548152602001600382015481526020016004820160009054906101000a900460ff161515151581525050905080602001513414610a70576040517f08c379a0000000000000000000000000000000000000000000000000000000008152600401610a6790611535565b60405180910390fd5b600115158160800151151514610abb576040517f08c379a0000000000000000000000000000000000000000000000000000000008152600401610ab2906115a1565b60405180910390fd5b60036000838152602001908152602001600020600080820160006101000a81549073ffffffffffffffffffffffffffffffffffffffff02191690556001820160009055600282016000905560038201600090556004820160006101000a81549060ff0219169055505060006002826040015181548110610b3e57610b3d6110b4565b5b906000526020600020906005020160040160006101000a81548160ff021916908315150217905550600081602001511115610bc357806000015173ffffffffffffffffffffffffffffffffffffffff166108fc82602001519081150290604051600060405180830381858888f19350505050158015610bc1573d6000803e3d6000fd5b505b600160009054906101000a900473ffffffffffffffffffffffffffffffffffffffff1673ffffffffffffffffffffffffffffffffffffffff166323b872dd826000015133856040518463ffffffff1660e01b8152600401610c2693929190611620565b600060405180830381600087803b158015610c4057600080fd5b505af1158015610c54573d6000803e3d6000fd5b505050507fd99e4fad9ad6313b1feb588fa8e605e3a9873172f2024330c35dd2b4041a43863383604051610c899291906116a3565b60405180910390a15050565b60008273ffffffffffffffffffffffffffffffffffffffff16600160009054906101000a900473ffffffffffffffffffffffffffffffffffffffff1673ffffffffffffffffffffffffffffffffffffffff16636352211e846040518263ffffffff1660e01b8152600401610d0991906116df565b602060405180830381865afa158015610d26573d6000803e3d6000fd5b505050506040513d601f19601f82011682018060405250810190610d4a919061170f565b73ffffffffffffffffffffffffffffffffffffffff1614905092915050565b600080fd5b600073ffffffffffffffffffffffffffffffffffffffff82169050919050565b6000610d9982610d6e565b9050919050565b610da981610d8e565b8114610db457600080fd5b50565b600081359050610dc681610da0565b92915050565b600060208284031215610de257610de1610d69565b5b6000610df084828501610db7565b91505092915050565b6000819050919050565b610e0c81610df9565b8114610e1757600080fd5b50565b600081359050610e2981610e03565b92915050565b600060208284031215610e4557610e44610d69565b5b6000610e5384828501610e1a565b91505092915050565b610e6581610d8e565b82525050565b610e7481610df9565b82525050565b60008115159050919050565b610e8f81610e7a565b82525050565b600060a082019050610eaa6000830188610e5c565b610eb76020830187610e6b565b610ec46040830186610e6b565b610ed16060830185610e6b565b610ede6080830184610e86565b9695505050505050565b600081519050919050565b600082825260208201905092915050565b6000819050602082019050919050565b610f1d81610df9565b82525050565b6000610f2f8383610f14565b60208301905092915050565b6000602082019050919050565b6000610f5382610ee8565b610f5d8185610ef3565b9350610f6883610f04565b8060005b83811015610f99578151610f808882610f23565b9750610f8b83610f3b565b925050600181019050610f6c565b5085935050505092915050565b60006020820190508181036000830152610fc08184610f48565b905092915050565b60008060408385031215610fdf57610fde610d69565b5b6000610fed85828601610e1a565b9250506020610ffe85828601610e1a565b9150509250929050565b600082825260208201905092915050565b7f596f75206d75737420626520746865204f776c4361742773204f776e65722021600082015250565b600061104f602083611008565b915061105a82611019565b602082019050919050565b6000602082019050818103600083015261107e81611042565b9050919050565b7f4e487b7100000000000000000000000000000000000000000000000000000000600052604160045260246000fd5b7f4e487b7100000000000000000000000000000000000000000000000000000000600052603260045260246000fd5b7f4e487b7100000000000000000000000000000000000000000000000000000000600052601160045260246000fd5b600061111d82610df9565b91507fffffffffffffffffffffffffffffffffffffffffffffffffffffffffffffffff8214156111505761114f6110e3565b5b600182019050919050565b7f596f7520617265206e6f74206f776e6572206f662074686174204f776c436174600082015250565b6000611191602083611008565b915061119c8261115b565b602082019050919050565b600060208201905081810360008301526111c081611184565b9050919050565b7f596f752063616e27742073656c6c207477696365207468652073616d65206f6660008201527f6672657273000000000000000000000000000000000000000000000000000000602082015250565b6000611223602583611008565b915061122e826111c7565b604082019050919050565b6000602082019050818103600083015261125281611216565b9050919050565b600060408201905061126e6000830185610e5c565b61127b6020830184610e5c565b9392505050565b61128b81610e7a565b811461129657600080fd5b50565b6000815190506112a881611282565b92915050565b6000602082840312156112c4576112c3610d69565b5b60006112d284828501611299565b91505092915050565b7f436f6e7472616374206e6565647320746f20626520617070726f766564000000600082015250565b6000611311601d83611008565b915061131c826112db565b602082019050919050565b6000602082019050818103600083015261134081611304565b9050919050565b7f437265617465206f666665720000000000000000000000000000000000000000600082015250565b600061137d600c83611008565b915061138882611347565b602082019050919050565b600060608201905081810360008301526113ac81611370565b90506113bb6020830185610e5c565b6113c86040830184610e6b565b9392505050565b7f596f7520617265206e6f74207468652073656c6c6572206f662074686174204f60008201527f776c436174000000000000000000000000000000000000000000000000000000602082015250565b600061142b602583611008565b9150611436826113cf565b604082019050919050565b6000602082019050818103600083015261145a8161141e565b9050919050565b7f52656d6f7665206f666665720000000000000000000000000000000000000000600082015250565b6000611497600c83611008565b91506114a282611461565b602082019050919050565b600060608201905081810360008301526114c68161148a565b90506114d56020830185610e5c565b6114e26040830184610e6b565b9392505050565b7f54686520707269636520697320696e636f727265637400000000000000000000600082015250565b600061151f601683611008565b915061152a826114e9565b602082019050919050565b6000602082019050818103600083015261154e81611512565b9050919050565b7f4e6f20616374697665206f726465722070726573656e74000000000000000000600082015250565b600061158b601783611008565b915061159682611555565b602082019050919050565b600060208201905081810360008301526115ba8161157e565b9050919050565b6000819050919050565b60006115e66115e16115dc84610d6e565b6115c1565b610d6e565b9050919050565b60006115f8826115cb565b9050919050565b600061160a826115ed565b9050919050565b61161a816115ff565b82525050565b60006060820190506116356000830186611611565b6116426020830185610e5c565b61164f6040830184610e6b565b949350505050565b7f4275790000000000000000000000000000000000000000000000000000000000600082015250565b600061168d600383611008565b915061169882611657565b602082019050919050565b600060608201905081810360008301526116bc81611680565b90506116cb6020830185610e5c565b6116d86040830184610e6b565b9392505050565b60006020820190506116f46000830184610e6b565b92915050565b60008151905061170981610da0565b92915050565b60006020828403121561172557611724610d69565b5b6000611733848285016116fa565b9150509291505056fea2646970667358221220e316c50a5a3923c3ffa3c9375792374c0f29c61ed5b4782fb080b03ee88f69d464736f6c634300080b0033",
  "immutableReferences": {},
  "source": "// SPDX-License-Identifier: GPL-3.0\npragma solidity ^0.8.11;\n\n/* import \"./OwlCatContract.sol\";\nimport \"./OwlCatOwner.sol\"; */\nimport \"./IOwlCatMarketplace.sol\";\n\ncontract OwlCatMarketPlace is OwlCatOwner, IOwlCatMarketPlace {\n  OwlCatContract private _owlCatContract;\n\n  struct Offer {\n    address payable seller;\n    uint256 price;\n    uint256 index;\n    uint256 tokenId;\n    bool active;\n  }\n\n  Offer[] offers;\n\n  mapping(uint256 => Offer) tokenIdToOffer;\n\n  function setOwlCatContract(address _owlCatContractAddress) public onlyOwner {\n    _owlCatContract = OwlCatContract(_owlCatContractAddress);\n  }\n\n  constructor(address _owlCatContractAddress) {\n    setOwlCatContract(_owlCatContractAddress);\n  }\n\n  function getOffer(uint256 _tokenId) public view returns (\n    address seller,\n    uint256 price,\n    uint256 index,\n    uint256 tokenId,\n    bool active\n  ) {\n\n    Offer storage offer = tokenIdToOffer[_tokenId];\n\n    return(\n      offer.seller,\n      offer.price,\n      offer.index,\n      offer.tokenId,\n      offer.active\n    );\n  }\n\n  function getAllTokenOnSale() public view returns(uint256[] memory listOfOffers){\n    \n    uint256 totalOffers = offers.length;\n\n    if(totalOffers == 0)\n      return new uint256[](0);\n    else{\n      \n      uint256[] memory result = new uint256[](totalOffers); // hack in OwlCatContract with constructor and for OwlCat 0\n      uint256 offerId;\n      \n      for(offerId = 0; offerId < totalOffers; offerId++)\n        if(offers[offerId].active == true)\n          result[offerId] = offers[offerId].tokenId;\n\n      return result;\n    }\n  }\n\n  function _ownsOwlCat(address _address, uint256 _tokenId) internal view returns(bool){\n    return(_owlCatContract.ownerOf(_tokenId) == _address);\n  }\n\n  function setOffer(uint256 _price, uint256 _tokenId) public {\n    require(_ownsOwlCat(msg.sender, _tokenId), \"You are not owner of that OwlCat\");\n    require(tokenIdToOffer[_tokenId].active == false, \"You can't sell twice the same offrers\");\n    require(_owlCatContract.isApprovedForAll(msg.sender, address(this)), \"Contract needs to be approved\");\n\n    // msg.sender and tx.origin are not type payable by default anymore so payable(msg.sender).transfer\n    Offer memory _offer = Offer({\n      seller: payable(msg.sender), \n      price: _price,\n      active: true,\n      tokenId: _tokenId,\n      index: offers.length\n    });\n\n    tokenIdToOffer[_tokenId] = _offer;\n    offers.push(_offer);\n\n    emit MarketTransaction(\"Create offer\", msg.sender, _tokenId);\n  }\n\n  function removeOffer(uint256 _tokenId) public {\n    Offer memory offer = tokenIdToOffer[_tokenId];\n    require(offer.seller == msg.sender, \"You are not the seller of that OwlCat\");\n\n    delete tokenIdToOffer[_tokenId];\n    offers[offer.index].active = false;\n\n    emit MarketTransaction(\"Remove offer\", msg.sender, _tokenId); \n  }\n\n  function buyOwlCat(uint256 _tokenId) public payable {\n    Offer memory offer = tokenIdToOffer[_tokenId];\n    require(msg.value == offer.price, \"The price is incorrect\");\n    require(offer.active == true, \"No active order present\");\n\n    // Important: delete the OwlCat form the mapping before paying out to prevent reentry attcks\n    delete tokenIdToOffer[_tokenId];\n    offers[offer.index].active = false;\n\n    // Transfer the funds to the seller\n    //TODO: make this logic pull instead push\n    if(offer.price > 0){\n      offer.seller.transfer(offer.price);\n    }\n\n    //Transfer ownership of the OwlCat\n    _owlCatContract.transferFrom(offer.seller, msg.sender, _tokenId);\n\n    emit MarketTransaction(\"Buy\", msg.sender, _tokenId);\n  }\n}",
  "sourcePath": "/home/samael/Documents/ethereum/Kitties_NFT/OwlCat_Project/8_owlCatNFT-master1/contracts/OwlCatMarketplace.sol",
  "compiler": {
    "name": "solc",
    "version": "0.8.11+commit.d7f03943.Emscripten.clang"
  },
  "schemaVersion": "3.4.4",
  "updatedAt": "2022-04-21T22:18:05.623Z",
  "networkType": "ethereum",
  "devdoc": {
    "kind": "dev",
    "methods": {},
    "version": 1
  },
  "userdoc": {
    "kind": "user",
    "methods": {
      "buyOwlCat(uint256)": {
        "notice": "Executes the purchase of _tokenId. Sends the funds to the seller and transfers the token using transferFrom in Kittycontract. Emits the MarketTransaction event with txType \"Buy\". Requirement: The msg.value needs to equal the price of _tokenId Requirement: There must be an active offer for _tokenId"
      },
      "getAllTokenOnSale()": {
        "notice": "Get all tokenId's that are currently for sale. Returns an empty arror if none exist."
      },
      "getOffer(uint256)": {
        "notice": "Get the details about a offer for _tokenId. Throws an error if there is no active offer for _tokenId."
      },
      "removeOffer(uint256)": {
        "notice": "Removes an existing offer. Emits the MarketTransaction event with txType \"Remove offer\" Requirement: Only the seller of _tokenId can remove an offer."
      },
      "setOffer(uint256,uint256)": {
        "notice": "Creates a new offer for _tokenId for the price _price. Emits the MarketTransaction event with txType \"Create offer\" Requirement: Only the owner of _tokenId can create an offer. Requirement: There can only be one active offer for a token at a time. Requirement: Marketplace contract (this) needs to be an approved operator when the offer is created."
      }
    },
    "version": 1
  }
}