{
  "contractName": "OwlCatContract",
  "abi": [
    {
      "inputs": [],
      "stateMutability": "nonpayable",
      "type": "constructor"
    },
    {
      "anonymous": false,
      "inputs": [
        {
          "indexed": true,
          "internalType": "address",
          "name": "owner",
          "type": "address"
        },
        {
          "indexed": true,
          "internalType": "address",
          "name": "approved",
          "type": "address"
        },
        {
          "indexed": true,
          "internalType": "uint256",
          "name": "tokenId",
          "type": "uint256"
        }
      ],
      "name": "Approval",
      "type": "event"
    },
    {
      "anonymous": false,
      "inputs": [
        {
          "indexed": true,
          "internalType": "address",
          "name": "owner",
          "type": "address"
        },
        {
          "indexed": true,
          "internalType": "address",
          "name": "operator",
          "type": "address"
        },
        {
          "indexed": false,
          "internalType": "bool",
          "name": "approved",
          "type": "bool"
        }
      ],
      "name": "ApprovalForAll",
      "type": "event"
    },
    {
      "anonymous": false,
      "inputs": [
        {
          "indexed": false,
          "internalType": "address",
          "name": "owner",
          "type": "address"
        },
        {
          "indexed": false,
          "internalType": "uint256",
          "name": "owlCatId",
          "type": "uint256"
        },
        {
          "indexed": false,
          "internalType": "uint256",
          "name": "mumId",
          "type": "uint256"
        },
        {
          "indexed": false,
          "internalType": "uint256",
          "name": "dadId",
          "type": "uint256"
        },
        {
          "indexed": false,
          "internalType": "uint256",
          "name": "genes",
          "type": "uint256"
        }
      ],
      "name": "Birth",
      "type": "event"
    },
    {
      "anonymous": false,
      "inputs": [
        {
          "indexed": true,
          "internalType": "address",
          "name": "from",
          "type": "address"
        },
        {
          "indexed": true,
          "internalType": "address",
          "name": "to",
          "type": "address"
        },
        {
          "indexed": true,
          "internalType": "uint256",
          "name": "tokenId",
          "type": "uint256"
        }
      ],
      "name": "Transfer",
      "type": "event"
    },
    {
      "inputs": [],
      "name": "CREATION_LIMIT_GEN0",
      "outputs": [
        {
          "internalType": "uint256",
          "name": "",
          "type": "uint256"
        }
      ],
      "stateMutability": "view",
      "type": "function",
      "constant": true
    },
    {
      "inputs": [],
      "name": "_name",
      "outputs": [
        {
          "internalType": "string",
          "name": "",
          "type": "string"
        }
      ],
      "stateMutability": "view",
      "type": "function",
      "constant": true
    },
    {
      "inputs": [],
      "name": "_symbol",
      "outputs": [
        {
          "internalType": "string",
          "name": "",
          "type": "string"
        }
      ],
      "stateMutability": "view",
      "type": "function",
      "constant": true
    },
    {
      "inputs": [],
      "name": "gen0Counter",
      "outputs": [
        {
          "internalType": "uint256",
          "name": "",
          "type": "uint256"
        }
      ],
      "stateMutability": "view",
      "type": "function",
      "constant": true
    },
    {
      "inputs": [
        {
          "internalType": "uint256",
          "name": "",
          "type": "uint256"
        }
      ],
      "name": "owlCatIndexToApproved",
      "outputs": [
        {
          "internalType": "address",
          "name": "",
          "type": "address"
        }
      ],
      "stateMutability": "view",
      "type": "function",
      "constant": true
    },
    {
      "inputs": [
        {
          "internalType": "uint256",
          "name": "",
          "type": "uint256"
        }
      ],
      "name": "owlCatIndexToOwner",
      "outputs": [
        {
          "internalType": "address",
          "name": "",
          "type": "address"
        }
      ],
      "stateMutability": "view",
      "type": "function",
      "constant": true
    },
    {
      "inputs": [
        {
          "internalType": "uint256",
          "name": "_dadId",
          "type": "uint256"
        },
        {
          "internalType": "uint256",
          "name": "_mumId",
          "type": "uint256"
        }
      ],
      "name": "breed",
      "outputs": [],
      "stateMutability": "nonpayable",
      "type": "function"
    },
    {
      "inputs": [
        {
          "internalType": "bytes4",
          "name": "_interfaceId",
          "type": "bytes4"
        }
      ],
      "name": "supportsInterface",
      "outputs": [
        {
          "internalType": "bool",
          "name": "",
          "type": "bool"
        }
      ],
      "stateMutability": "pure",
      "type": "function",
      "constant": true
    },
    {
      "inputs": [
        {
          "internalType": "uint256",
          "name": "_genes",
          "type": "uint256"
        }
      ],
      "name": "createOwlCatGen0",
      "outputs": [
        {
          "internalType": "uint256",
          "name": "",
          "type": "uint256"
        }
      ],
      "stateMutability": "nonpayable",
      "type": "function"
    },
    {
      "inputs": [
        {
          "internalType": "uint256",
          "name": "tokenId",
          "type": "uint256"
        }
      ],
      "name": "getOwlCat",
      "outputs": [
        {
          "internalType": "uint256",
          "name": "mumId",
          "type": "uint256"
        },
        {
          "internalType": "uint256",
          "name": "dadId",
          "type": "uint256"
        },
        {
          "internalType": "uint256",
          "name": "generation",
          "type": "uint256"
        },
        {
          "internalType": "uint256",
          "name": "genes",
          "type": "uint256"
        },
        {
          "internalType": "uint256",
          "name": "birthTime",
          "type": "uint256"
        }
      ],
      "stateMutability": "view",
      "type": "function",
      "constant": true
    },
    {
      "inputs": [
        {
          "internalType": "address",
          "name": "owner",
          "type": "address"
        }
      ],
      "name": "balanceOf",
      "outputs": [
        {
          "internalType": "uint256",
          "name": "balance",
          "type": "uint256"
        }
      ],
      "stateMutability": "view",
      "type": "function",
      "constant": true
    },
    {
      "inputs": [],
      "name": "totalSupply",
      "outputs": [
        {
          "internalType": "uint256",
          "name": "total",
          "type": "uint256"
        }
      ],
      "stateMutability": "view",
      "type": "function",
      "constant": true
    },
    {
      "inputs": [],
      "name": "name",
      "outputs": [
        {
          "internalType": "string",
          "name": "tokenName",
          "type": "string"
        }
      ],
      "stateMutability": "pure",
      "type": "function",
      "constant": true
    },
    {
      "inputs": [],
      "name": "symbol",
      "outputs": [
        {
          "internalType": "string",
          "name": "tokenSymbol",
          "type": "string"
        }
      ],
      "stateMutability": "pure",
      "type": "function",
      "constant": true
    },
    {
      "inputs": [
        {
          "internalType": "uint256",
          "name": "tokenId",
          "type": "uint256"
        }
      ],
      "name": "ownerOf",
      "outputs": [
        {
          "internalType": "address",
          "name": "owner",
          "type": "address"
        }
      ],
      "stateMutability": "view",
      "type": "function",
      "constant": true
    },
    {
      "inputs": [
        {
          "internalType": "address",
          "name": "to",
          "type": "address"
        },
        {
          "internalType": "uint256",
          "name": "tokenId",
          "type": "uint256"
        }
      ],
      "name": "transfer",
      "outputs": [],
      "stateMutability": "nonpayable",
      "type": "function"
    },
    {
      "inputs": [
        {
          "internalType": "address",
          "name": "_to",
          "type": "address"
        },
        {
          "internalType": "uint256",
          "name": "_tokenId",
          "type": "uint256"
        }
      ],
      "name": "approve",
      "outputs": [],
      "stateMutability": "nonpayable",
      "type": "function"
    },
    {
      "inputs": [
        {
          "internalType": "address",
          "name": "operator",
          "type": "address"
        },
        {
          "internalType": "bool",
          "name": "approved",
          "type": "bool"
        }
      ],
      "name": "setApprovalForAll",
      "outputs": [],
      "stateMutability": "nonpayable",
      "type": "function"
    },
    {
      "inputs": [
        {
          "internalType": "uint256",
          "name": "tokenId",
          "type": "uint256"
        }
      ],
      "name": "getApproved",
      "outputs": [
        {
          "internalType": "address",
          "name": "",
          "type": "address"
        }
      ],
      "stateMutability": "view",
      "type": "function",
      "constant": true
    },
    {
      "inputs": [
        {
          "internalType": "address",
          "name": "owner",
          "type": "address"
        },
        {
          "internalType": "address",
          "name": "operator",
          "type": "address"
        }
      ],
      "name": "isApprovedForAll",
      "outputs": [
        {
          "internalType": "bool",
          "name": "",
          "type": "bool"
        }
      ],
      "stateMutability": "view",
      "type": "function",
      "constant": true
    },
    {
      "inputs": [
        {
          "internalType": "address",
          "name": "_from",
          "type": "address"
        },
        {
          "internalType": "address",
          "name": "_to",
          "type": "address"
        },
        {
          "internalType": "uint256",
          "name": "_tokenId",
          "type": "uint256"
        }
      ],
      "name": "safeTransferFrom",
      "outputs": [],
      "stateMutability": "nonpayable",
      "type": "function"
    },
    {
      "inputs": [
        {
          "internalType": "address",
          "name": "_from",
          "type": "address"
        },
        {
          "internalType": "address",
          "name": "_to",
          "type": "address"
        },
        {
          "internalType": "uint256",
          "name": "_tokenId",
          "type": "uint256"
        },
        {
          "internalType": "bytes",
          "name": "_data",
          "type": "bytes"
        }
      ],
      "name": "safeTransferFrom",
      "outputs": [],
      "stateMutability": "nonpayable",
      "type": "function"
    },
    {
      "inputs": [
        {
          "internalType": "address",
          "name": "_from",
          "type": "address"
        },
        {
          "internalType": "address",
          "name": "_to",
          "type": "address"
        },
        {
          "internalType": "uint256",
          "name": "_tokenId",
          "type": "uint256"
        }
      ],
      "name": "transferFrom",
      "outputs": [],
      "stateMutability": "nonpayable",
      "type": "function"
    }
  ],
  "bytecode": "0x60806040523480156200001157600080fd5b50336000806101000a81548173ffffffffffffffffffffffffffffffffffffffff021916908373ffffffffffffffffffffffffffffffffffffffff1602179055506200008a60008060007fffffffffffffffffffffffffffffffffffffffffffffffffffffffffffffffff60006200009160201b60201c565b5062000599565b6000806040518060a001604052808863ffffffff1681526020018763ffffffff1681526020018661ffff1681526020018581526020014267ffffffffffffffff1681525090506000600182908060018154018082558091505060019003906000526020600020906003020160009091909190915060008201518160000160006101000a81548163ffffffff021916908363ffffffff16021790555060208201518160000160046101000a81548163ffffffff021916908363ffffffff16021790555060408201518160000160086101000a81548161ffff021916908361ffff1602179055506060820151816001015560808201518160020160006101000a81548167ffffffffffffffff021916908367ffffffffffffffff160217905550505060018080549050620001c491906200042e565b90507f0a5311bd2a6608f08a180df2ee7c5946819a649b204b554bb8e39825b2c50ad584828a8a89604051620001ff959493929190620004bf565b60405180910390a16200021b600085836200022960201b60201c565b809250505095945050505050565b600360008373ffffffffffffffffffffffffffffffffffffffff1673ffffffffffffffffffffffffffffffffffffffff16815260200190815260200160002060008154809291906200027b906200051c565b9190505550816002600083815260200190815260200160002060006101000a81548173ffffffffffffffffffffffffffffffffffffffff021916908373ffffffffffffffffffffffffffffffffffffffff160217905550600073ffffffffffffffffffffffffffffffffffffffff168373ffffffffffffffffffffffffffffffffffffffff16146200039557600360008473ffffffffffffffffffffffffffffffffffffffff1673ffffffffffffffffffffffffffffffffffffffff168152602001908152602001600020600081548092919062000359906200056a565b91905055506004600082815260200190815260200160002060006101000a81549073ffffffffffffffffffffffffffffffffffffffff02191690555b808273ffffffffffffffffffffffffffffffffffffffff168473ffffffffffffffffffffffffffffffffffffffff167fddf252ad1be2c89b69c2b068fc378daa952ba7f163c4a11628f55a4df523b3ef60405160405180910390a4505050565b6000819050919050565b7f4e487b7100000000000000000000000000000000000000000000000000000000600052601160045260246000fd5b60006200043b82620003f5565b91506200044883620003f5565b9250828210156200045e576200045d620003ff565b5b828203905092915050565b600073ffffffffffffffffffffffffffffffffffffffff82169050919050565b6000620004968262000469565b9050919050565b620004a88162000489565b82525050565b620004b981620003f5565b82525050565b600060a082019050620004d660008301886200049d565b620004e56020830187620004ae565b620004f46040830186620004ae565b620005036060830185620004ae565b620005126080830184620004ae565b9695505050505050565b60006200052982620003f5565b91507fffffffffffffffffffffffffffffffffffffffffffffffffffffffffffffffff8214156200055f576200055e620003ff565b5b600182019050919050565b60006200057782620003f5565b915060008214156200058e576200058d620003ff565b5b600182039050919050565b61210880620005a96000396000f3fe608060405234801561001057600080fd5b506004361061014d5760003560e01c80637f952b3a116100c3578063b48343301161007c578063b4834330146103da578063b88d4fde146103f8578063d28d885214610414578063d9ecad7b14610432578063e985e9c51461044e578063ef5e94aa1461047e5761014d565b80637f952b3a1461030257806395d89b4114610336578063a22cb46514610354578063a267f3f414610370578063a9059cbb146103a0578063b09f1266146103bc5761014d565b806318160ddd1161011557806318160ddd1461021c57806323b872dd1461023a57806342842e0e14610256578063574efdb4146102725780636352211e146102a257806370a08231146102d25761014d565b806301ffc9a71461015257806306fdde0314610182578063081812fc146101a0578063095ea7b3146101d05780630f9828e7146101ec575b600080fd5b61016c60048036038101906101679190611628565b61049c565b6040516101799190611670565b60405180910390f35b61018a61053c565b6040516101979190611724565b60405180910390f35b6101ba60048036038101906101b5919061177c565b610579565b6040516101c791906117ea565b60405180910390f35b6101ea60048036038101906101e59190611831565b6105c7565b005b6102066004803603810190610201919061177c565b610643565b60405161021391906117ea565b60405180910390f35b610224610676565b6040516102319190611880565b60405180910390f35b610254600480360381019061024f919061189b565b610683565b005b610270600480360381019061026b919061189b565b6106a8565b005b61028c6004803603810190610287919061177c565b6106c8565b60405161029991906117ea565b60405180910390f35b6102bc60048036038101906102b7919061177c565b6106fb565b6040516102c991906117ea565b60405180910390f35b6102ec60048036038101906102e791906118ee565b610738565b6040516102f99190611880565b60405180910390f35b61031c6004803603810190610317919061177c565b610781565b60405161032d95949392919061191b565b60405180910390f35b61033e610837565b60405161034b9190611724565b60405180910390f35b61036e6004803603810190610369919061199a565b610874565b005b61038a6004803603810190610385919061177c565b6109aa565b6040516103979190611880565b60405180910390f35b6103ba60048036038101906103b59190611831565b610aae565b005b6103c4610b43565b6040516103d19190611724565b60405180910390f35b6103e2610b7c565b6040516103ef9190611880565b60405180910390f35b610412600480360381019061040d9190611b0f565b610b81565b005b61041c610ba8565b6040516104299190611724565b60405180910390f35b61044c60048036038101906104479190611b92565b610be1565b005b61046860048036038101906104639190611bd2565b610d28565b6040516104759190611670565b60405180910390f35b610486610dbc565b6040516104939190611880565b60405180910390f35b60006380ac58cd60e01b7bffffffffffffffffffffffffffffffffffffffffffffffffffffffff1916827bffffffffffffffffffffffffffffffffffffffffffffffffffffffff1916148061053557506301ffc9a760e01b7bffffffffffffffffffffffffffffffffffffffffffffffffffffffff1916827bffffffffffffffffffffffffffffffffffffffffffffffffffffffff1916145b9050919050565b60606040518060400160405280600e81526020017f4f776c43617473466163746f7279000000000000000000000000000000000000815250905090565b6000600180549050821061058c57600080fd5b6004600083815260200190815260200160002060009054906101000a900473ffffffffffffffffffffffffffffffffffffffff169050919050565b6105d13382610dc2565b6105da57600080fd5b6105e48183610e2e565b808273ffffffffffffffffffffffffffffffffffffffff163373ffffffffffffffffffffffffffffffffffffffff167f8c5be1e5ebec7d5bd14f71427d1e84f3dd0314c0f7b2291e5b200ac8c7c3b92560405160405180910390a45050565b60046020528060005260406000206000915054906101000a900473ffffffffffffffffffffffffffffffffffffffff1681565b6000600180549050905090565b61068f33848484610e84565b61069857600080fd5b6106a3838383610f3f565b505050565b6106c383838360405180602001604052806000815250610b81565b505050565b60026020528060005260406000206000915054906101000a900473ffffffffffffffffffffffffffffffffffffffff1681565b60006002600083815260200190815260200160002060009054906101000a900473ffffffffffffffffffffffffffffffffffffffff169050919050565b6000600360008373ffffffffffffffffffffffffffffffffffffffff1673ffffffffffffffffffffffffffffffffffffffff168152602001908152602001600020549050919050565b6000806000806000806001878154811061079e5761079d611c12565b5b906000526020600020906003020190508060000160009054906101000a900463ffffffff1663ffffffff1695508060000160049054906101000a900463ffffffff1663ffffffff1694508060000160089054906101000a900461ffff1661ffff169350806001015492508060020160009054906101000a900467ffffffffffffffff1667ffffffffffffffff1691505091939590929450565b60606040518060400160405280600381526020017f4f43460000000000000000000000000000000000000000000000000000000000815250905090565b3373ffffffffffffffffffffffffffffffffffffffff168273ffffffffffffffffffffffffffffffffffffffff1614156108ad57600080fd5b80600560003373ffffffffffffffffffffffffffffffffffffffff1673ffffffffffffffffffffffffffffffffffffffff16815260200190815260200160002060008473ffffffffffffffffffffffffffffffffffffffff1673ffffffffffffffffffffffffffffffffffffffff16815260200190815260200160002060006101000a81548160ff0219169083151502179055508173ffffffffffffffffffffffffffffffffffffffff163373ffffffffffffffffffffffffffffffffffffffff167f17307eab39ab6107e8899845ad3d59bd9653f200f220920489ca2b5937696c318360405161099e9190611670565b60405180910390a35050565b60008060009054906101000a900473ffffffffffffffffffffffffffffffffffffffff1673ffffffffffffffffffffffffffffffffffffffff163373ffffffffffffffffffffffffffffffffffffffff1614610a3b576040517f08c379a0000000000000000000000000000000000000000000000000000000008152600401610a3290611c8d565b60405180910390fd5b600a60065410610a80576040517f08c379a0000000000000000000000000000000000000000000000000000000008152600401610a7790611cf9565b60405180910390fd5b60066000815480929190610a9390611d48565b9190505550610aa760008060008533611106565b9050919050565b600073ffffffffffffffffffffffffffffffffffffffff168273ffffffffffffffffffffffffffffffffffffffff161415610ae857600080fd5b3073ffffffffffffffffffffffffffffffffffffffff168273ffffffffffffffffffffffffffffffffffffffff161415610b2157600080fd5b610b2b3382610dc2565b610b3457600080fd5b610b3f338383610f3f565b5050565b6040518060400160405280600381526020017f4f4346000000000000000000000000000000000000000000000000000000000081525081565b600a81565b610b8d33858585610e84565b610b9657600080fd5b610ba284848484611292565b50505050565b6040518060400160405280600e81526020017f4f776c43617473466163746f727900000000000000000000000000000000000081525081565b610beb3383610dc2565b610c2a576040517f08c379a0000000000000000000000000000000000000000000000000000000008152600401610c2190611ddd565b60405180910390fd5b610c343382610dc2565b610c73576040517f08c379a0000000000000000000000000000000000000000000000000000000008152600401610c6a90611ddd565b60405180910390fd5b600080610c7f84610781565b50935093505050600080610c9285610781565b509350935050506000610ca584836112b8565b9050600083861015610cd457600184610cbe9190611dfd565b9050600281610ccd9190611e82565b9050610d10565b83861115610cff57600186610ce99190611dfd565b9050600281610cf89190611e82565b9050610d0f565b600184610d0c9190611dfd565b90505b5b610d1d8789838533611106565b505050505050505050565b6000600560008473ffffffffffffffffffffffffffffffffffffffff1673ffffffffffffffffffffffffffffffffffffffff16815260200190815260200160002060008373ffffffffffffffffffffffffffffffffffffffff1673ffffffffffffffffffffffffffffffffffffffff16815260200190815260200160002060009054906101000a900460ff16905092915050565b60065481565b60008273ffffffffffffffffffffffffffffffffffffffff166002600084815260200190815260200160002060009054906101000a900473ffffffffffffffffffffffffffffffffffffffff1673ffffffffffffffffffffffffffffffffffffffff1614905092915050565b806004600084815260200190815260200160002060006101000a81548173ffffffffffffffffffffffffffffffffffffffff021916908373ffffffffffffffffffffffffffffffffffffffff1602179055505050565b60006001805490508210610e9757600080fd5b600073ffffffffffffffffffffffffffffffffffffffff168373ffffffffffffffffffffffffffffffffffffffff161415610ed157600080fd5b610edb8483610dc2565b610ee457600080fd5b8373ffffffffffffffffffffffffffffffffffffffff168573ffffffffffffffffffffffffffffffffffffffff161480610f245750610f238583611409565b5b80610f355750610f348486610d28565b5b9050949350505050565b600360008373ffffffffffffffffffffffffffffffffffffffff1673ffffffffffffffffffffffffffffffffffffffff1681526020019081526020016000206000815480929190610f8f90611d48565b9190505550816002600083815260200190815260200160002060006101000a81548173ffffffffffffffffffffffffffffffffffffffff021916908373ffffffffffffffffffffffffffffffffffffffff160217905550600073ffffffffffffffffffffffffffffffffffffffff168373ffffffffffffffffffffffffffffffffffffffff16146110a657600360008473ffffffffffffffffffffffffffffffffffffffff1673ffffffffffffffffffffffffffffffffffffffff168152602001908152602001600020600081548092919061106a90611eb3565b91905055506004600082815260200190815260200160002060006101000a81549073ffffffffffffffffffffffffffffffffffffffff02191690555b808273ffffffffffffffffffffffffffffffffffffffff168473ffffffffffffffffffffffffffffffffffffffff167fddf252ad1be2c89b69c2b068fc378daa952ba7f163c4a11628f55a4df523b3ef60405160405180910390a4505050565b6000806040518060a001604052808863ffffffff1681526020018763ffffffff1681526020018661ffff1681526020018581526020014267ffffffffffffffff1681525090506000600182908060018154018082558091505060019003906000526020600020906003020160009091909190915060008201518160000160006101000a81548163ffffffff021916908363ffffffff16021790555060208201518160000160046101000a81548163ffffffff021916908363ffffffff16021790555060408201518160000160086101000a81548161ffff021916908361ffff1602179055506060820151816001015560808201518160020160006101000a81548167ffffffffffffffff021916908367ffffffffffffffff1602179055505050600180805490506112379190611edd565b90507f0a5311bd2a6608f08a180df2ee7c5946819a649b204b554bb8e39825b2c50ad584828a8a89604051611270959493929190611f11565b60405180910390a161128460008583610f3f565b809250505095945050505050565b61129d848484610f3f565b6112a984848484611475565b6112b257600080fd5b50505050565b60006112c2611599565b600060ff426112d19190611f64565b905060008060079050600191505b6080821161139c576000828460ff161614611325576064866113019190611f64565b60ff1684826008811061131757611316611c12565b5b602002018181525050611352565b6064876113329190611f64565b60ff1684826008811061134857611347611c12565b5b6020020181815250505b60648661135f9190611e82565b955060648761136e9190611e82565b965060808214611388576001816113859190611edd565b90505b6002826113959190611f95565b91506112df565b60008092505b60088310156113fb578483600881106113be576113bd611c12565b5b6020020151816113ce9190611dfd565b9050600783146113e8576064816113e59190611f95565b90505b82806113f390611d48565b9350506113a2565b809550505050505092915050565b60008273ffffffffffffffffffffffffffffffffffffffff166004600084815260200190815260200160002060009054906101000a900473ffffffffffffffffffffffffffffffffffffffff1673ffffffffffffffffffffffffffffffffffffffff1614905092915050565b600061148084611580565b61148d5760019050611578565b60008473ffffffffffffffffffffffffffffffffffffffff1663150b7a02338887876040518563ffffffff1660e01b81526004016114ce9493929190612044565b6020604051808303816000875af11580156114ed573d6000803e3d6000fd5b505050506040513d601f19601f8201168201806040525081019061151191906120a5565b90507f150b7a023d4804d13e8c85fb27262cb750cf6ba9f9dd3bb30d90f482ceeb4b1f7bffffffffffffffffffffffffffffffffffffffffffffffffffffffff1916817bffffffffffffffffffffffffffffffffffffffffffffffffffffffff1916149150505b949350505050565b600080823b905060008163ffffffff1611915050919050565b604051806101000160405280600890602082028036833780820191505090505090565b6000604051905090565b600080fd5b600080fd5b60007fffffffff0000000000000000000000000000000000000000000000000000000082169050919050565b611605816115d0565b811461161057600080fd5b50565b600081359050611622816115fc565b92915050565b60006020828403121561163e5761163d6115c6565b5b600061164c84828501611613565b91505092915050565b60008115159050919050565b61166a81611655565b82525050565b60006020820190506116856000830184611661565b92915050565b600081519050919050565b600082825260208201905092915050565b60005b838110156116c55780820151818401526020810190506116aa565b838111156116d4576000848401525b50505050565b6000601f19601f8301169050919050565b60006116f68261168b565b6117008185611696565b93506117108185602086016116a7565b611719816116da565b840191505092915050565b6000602082019050818103600083015261173e81846116eb565b905092915050565b6000819050919050565b61175981611746565b811461176457600080fd5b50565b60008135905061177681611750565b92915050565b600060208284031215611792576117916115c6565b5b60006117a084828501611767565b91505092915050565b600073ffffffffffffffffffffffffffffffffffffffff82169050919050565b60006117d4826117a9565b9050919050565b6117e4816117c9565b82525050565b60006020820190506117ff60008301846117db565b92915050565b61180e816117c9565b811461181957600080fd5b50565b60008135905061182b81611805565b92915050565b60008060408385031215611848576118476115c6565b5b60006118568582860161181c565b925050602061186785828601611767565b9150509250929050565b61187a81611746565b82525050565b60006020820190506118956000830184611871565b92915050565b6000806000606084860312156118b4576118b36115c6565b5b60006118c28682870161181c565b93505060206118d38682870161181c565b92505060406118e486828701611767565b9150509250925092565b600060208284031215611904576119036115c6565b5b60006119128482850161181c565b91505092915050565b600060a0820190506119306000830188611871565b61193d6020830187611871565b61194a6040830186611871565b6119576060830185611871565b6119646080830184611871565b9695505050505050565b61197781611655565b811461198257600080fd5b50565b6000813590506119948161196e565b92915050565b600080604083850312156119b1576119b06115c6565b5b60006119bf8582860161181c565b92505060206119d085828601611985565b9150509250929050565b600080fd5b600080fd5b7f4e487b7100000000000000000000000000000000000000000000000000000000600052604160045260246000fd5b611a1c826116da565b810181811067ffffffffffffffff82111715611a3b57611a3a6119e4565b5b80604052505050565b6000611a4e6115bc565b9050611a5a8282611a13565b919050565b600067ffffffffffffffff821115611a7a57611a796119e4565b5b611a83826116da565b9050602081019050919050565b82818337600083830152505050565b6000611ab2611aad84611a5f565b611a44565b905082815260208101848484011115611ace57611acd6119df565b5b611ad9848285611a90565b509392505050565b600082601f830112611af657611af56119da565b5b8135611b06848260208601611a9f565b91505092915050565b60008060008060808587031215611b2957611b286115c6565b5b6000611b378782880161181c565b9450506020611b488782880161181c565b9350506040611b5987828801611767565b925050606085013567ffffffffffffffff811115611b7a57611b796115cb565b5b611b8687828801611ae1565b91505092959194509250565b60008060408385031215611ba957611ba86115c6565b5b6000611bb785828601611767565b9250506020611bc885828601611767565b9150509250929050565b60008060408385031215611be957611be86115c6565b5b6000611bf78582860161181c565b9250506020611c088582860161181c565b9150509250929050565b7f4e487b7100000000000000000000000000000000000000000000000000000000600052603260045260246000fd5b7f596f75206d75737420626520746865204f776c4361742773204f776e65722021600082015250565b6000611c77602083611696565b9150611c8282611c41565b602082019050919050565b60006020820190508181036000830152611ca681611c6a565b9050919050565b7f47656e30204f776c43617473206c696d69742072656163686564202100000000600082015250565b6000611ce3601c83611696565b9150611cee82611cad565b602082019050919050565b60006020820190508181036000830152611d1281611cd6565b9050919050565b7f4e487b7100000000000000000000000000000000000000000000000000000000600052601160045260246000fd5b6000611d5382611746565b91507fffffffffffffffffffffffffffffffffffffffffffffffffffffffffffffffff821415611d8657611d85611d19565b5b600182019050919050565b7f546865207573657220646f65736e2774206f776e2074686520746f6b656e0000600082015250565b6000611dc7601e83611696565b9150611dd282611d91565b602082019050919050565b60006020820190508181036000830152611df681611dba565b9050919050565b6000611e0882611746565b9150611e1383611746565b9250827fffffffffffffffffffffffffffffffffffffffffffffffffffffffffffffffff03821115611e4857611e47611d19565b5b828201905092915050565b7f4e487b7100000000000000000000000000000000000000000000000000000000600052601260045260246000fd5b6000611e8d82611746565b9150611e9883611746565b925082611ea857611ea7611e53565b5b828204905092915050565b6000611ebe82611746565b91506000821415611ed257611ed1611d19565b5b600182039050919050565b6000611ee882611746565b9150611ef383611746565b925082821015611f0657611f05611d19565b5b828203905092915050565b600060a082019050611f2660008301886117db565b611f336020830187611871565b611f406040830186611871565b611f4d6060830185611871565b611f5a6080830184611871565b9695505050505050565b6000611f6f82611746565b9150611f7a83611746565b925082611f8a57611f89611e53565b5b828206905092915050565b6000611fa082611746565b9150611fab83611746565b9250817fffffffffffffffffffffffffffffffffffffffffffffffffffffffffffffffff0483118215151615611fe457611fe3611d19565b5b828202905092915050565b600081519050919050565b600082825260208201905092915050565b600061201682611fef565b6120208185611ffa565b93506120308185602086016116a7565b612039816116da565b840191505092915050565b600060808201905061205960008301876117db565b61206660208301866117db565b6120736040830185611871565b8181036060830152612085818461200b565b905095945050505050565b60008151905061209f816115fc565b92915050565b6000602082840312156120bb576120ba6115c6565b5b60006120c984828501612090565b9150509291505056fea264697066735822122004a0a6155e3990a0e9635cefed0bf94d98a6c1007f99183f18e91405be0045b864736f6c634300080b0033",
  "immutableReferences": {},
  "source": "// SPDX-License-Identifier: GPL-3.0\npragma solidity ^0.8.11;\n\nimport \"./IERC721.sol\"; // interface to be extended\nimport \"./IERC721Receiver.sol\"; // III\nimport \"./OwlCatOwner.sol\";\n\ncontract OwlCatContract is IERC721, OwlCatOwner {\n\n  uint256 public constant CREATION_LIMIT_GEN0 = 10;\n  string public constant _name = \"OwlCatsFactory\";\n  string public constant  _symbol = \"OCF\";\n\n  bytes4 internal constant MAGIC_ERC721_RECEIVED = bytes4(keccak256(\"onERC721Received(address,address,uint256,bytes)\")); // III\n\n  /* IV\n  *    bytes4(keccak256('balanceOf(address)')) == 0x70a08231\n  *    bytes4(keccak256('ownerOf(uint256)')) == 0x6352211e\n  *    bytes4(keccak256('approve(address,uint256)')) == 0x095ea7b3\n  *    bytes4(keccak256('getApproved(uint256)')) == 0x081812fc\n  *    bytes4(keccak256('setApprovalForAll(address,bool)')) == 0xa22cb465\n  *    bytes4(keccak256('isApprovedForAll(address,address)')) == 0xe985e9c5\n  *    bytes4(keccak256('transferFrom(address,address,uint256)')) == 0x23b872dd\n  *    bytes4(keccak256('safeTransferFrom(address,address,uint256)')) == 0x42842e0e\n  *    bytes4(keccak256('safeTransferFrom(address,address,uint256,bytes)')) == 0xb88d4fde\n  * \n  *    => 0x70a08231 ^ 0x6352211e ^ 0x095ea7b3 ^ 0x081812fc ^ \n  *       0xa22cb465 ^ 0xe985e9c5 ^ 0x23b872dd ^ 0x42842e0e ^ 0xb88d4fde == 0x80ac58cd \n  */\n\n  bytes4 private constant _INTERFACE_ID_ERC721 = 0x80ac58cd; //IV\n\n  /*\n  *   bytes4(keccak256('supportsInterface(bytes4)')); \n  */\n\n  bytes4 private constant _INTERFACE_ID_ERC165 = 0x01ffc9a7; // IV\n  //receipt to the front-end\n  event Birth(  \n    address owner, \n    uint256 owlCatId, \n    uint256 mumId, \n    uint256 dadId, \n    uint256 genes);\n\n  struct OwlCat {\n    uint32 mumId;\n    uint32 dadId;\n    uint16 generation;\n    uint256 genes;\n    uint64 birthTime;\n  }\n\n  OwlCat[] owlCats;\n\n  mapping (uint256 => address) public owlCatIndexToOwner;\n  mapping (address => uint256) ownershipTokenCount;\n\n  mapping (uint256 => address) public owlCatIndexToApproved; // II\n  mapping (address => mapping (address => bool)) private _operatorApprovals; // II\n\n  uint256 public gen0Counter;\n\n  constructor() { // to avoid the case of OwlCat 0 that no one owns\n    _createOwlCat(0, 0, 0, type(uint256).max, address(0)); // uint256(-1) deprecated for max value\n  }\n\n  function breed(uint256 _dadId, uint256 _mumId) public { // V\n    require(_owns(msg.sender, _dadId), \"The user doesn't own the token\");\n    require(_owns(msg.sender, _mumId), \"The user doesn't own the token\");\n\n    (,,uint256 DadGeneration,uint256 dadDna,) = getOwlCat(_dadId); // reducing memory use ,,,,\n    (,,uint256 MumGeneration,uint256 mumDna,) = getOwlCat(_mumId);\n    \n    uint256 newDna = _mixDna(dadDna, mumDna);\n\n    uint256 kidGen = 0;\n      if(DadGeneration < MumGeneration){\n        kidGen = MumGeneration + 1;\n        kidGen /= 2;\n      } else if (DadGeneration > MumGeneration){\n        kidGen = DadGeneration + 1;\n        kidGen /= 2;\n      } else {\n        kidGen = MumGeneration + 1;\n      }\n\n      _createOwlCat(_mumId, _dadId, kidGen, newDna, msg.sender);\n  }\n\n  function supportsInterface(bytes4 _interfaceId) external pure returns (bool){\n    return ( _interfaceId == _INTERFACE_ID_ERC721 ||  _interfaceId == _INTERFACE_ID_ERC165 );\n  }\n\n  function createOwlCatGen0(uint256 _genes) public onlyOwner returns(uint256){\n    require(gen0Counter < CREATION_LIMIT_GEN0, \"Gen0 OwlCats limit reached !\");\n\n    gen0Counter++;\n\n    return _createOwlCat(0, 0, 0, _genes, msg.sender);\n  }\n\n  function _createOwlCat(\n    uint256 _mumId,\n    uint256 _dadId,\n    uint256 _generation,\n    uint256 _genes,\n    address _owner\n  ) private returns(uint256) {  //for instance not internal because not inherited\n      \n    OwlCat memory _owlCat = OwlCat({\n      mumId: uint32(_mumId),\n      dadId: uint32(_dadId),\n      generation: uint16(_generation),\n      genes: _genes,\n      birthTime: uint64(block.timestamp) // \"now\" DEPRECATED\n    });\n\n    uint256 newOwlCatId; \n    \n    owlCats.push(_owlCat);  // push returns the length DEPRECATED\n    newOwlCatId = owlCats.length - 1;\n\n    emit Birth(_owner, newOwlCatId, _mumId, _dadId, _genes); // receipt to the front-end\n\n    _transfer(address(0), _owner, newOwlCatId); // ojo por esto no queda en balance\n    \n    return newOwlCatId;\n\n  }\n\n  /* function getOwlCat(uint256 tokenId) external view returns(OwlCat memory owlcat){ // return strings\n     owlcat = owlCats[tokenId];\n  } */\n\n  function getOwlCat(uint256 tokenId) public view returns(  // return BN, V change external to public\n    uint256 mumId,\n    uint256 dadId,\n    uint256 generation,\n    uint256 genes,\n    uint256 birthTime\n  )\n  {\n    OwlCat storage owlcat = owlCats[tokenId];\n\n    mumId = uint32(owlcat.mumId);\n    dadId = uint32(owlcat.dadId);\n    generation = uint16(owlcat.generation);\n    genes = owlcat.genes;\n    birthTime = uint64(owlcat.birthTime);\n\n  }\n\n  function balanceOf(address owner) external view returns (uint256 balance){    \n    balance =  ownershipTokenCount[owner];\n  }\n\n  function totalSupply() external view returns (uint256 total){  //could be public\n    total = owlCats.length;\n  }\n\n  function name() external pure returns (string memory tokenName){\n    tokenName = _name;\n  }\n\n  function symbol() external pure returns (string memory tokenSymbol){\n    tokenSymbol = _symbol;\n  }\n\n  function ownerOf(uint256 tokenId) external view returns (address owner){\n    owner = owlCatIndexToOwner[tokenId];\n  }\n\n  function transfer(address to, uint256 tokenId) external{\n    require(to != address(0));\n    require(to != address(this));\n    require(_owns(msg.sender, tokenId));\n\n    _transfer(msg.sender, to, tokenId);\n \n  }\n\n  function _transfer(address from, address to, uint256 tokenId) internal {\n    ownershipTokenCount[to]++; // no aumenta balance del pues \"to\" es \"address(0)\"\n\n    owlCatIndexToOwner[tokenId] = to;\n\n    if(from != address(0)){ // for new cats, edge case 0 balance\n      ownershipTokenCount[from]--;\n      delete owlCatIndexToApproved[tokenId]; // once the token is transfered no one will still be approved\n    }\n\n    emit Transfer(from, to, tokenId);\n  }\n\n  function _safeTransfer(address _from, address _to, uint256 _tokenId, bytes memory _data) internal {\n    _transfer(_from, _to, _tokenId);\n    require(_checkERC721Support(_from, _to, _tokenId, _data) );\n  }\n\n  function _owns(address _claimant, uint256 _tokenId) internal view returns(bool){\n    return owlCatIndexToOwner[_tokenId] == _claimant;\n  }\n\n  function approve(address _to, uint256 _tokenId) public { // II, change external for public, warning?\n    require( _owns(msg.sender, _tokenId));\n\n    _approve(_tokenId, _to);\n    emit Approval(msg.sender, _to, _tokenId);\n  }\n  // we can have different operators for the same owner address, approve or remove \n  function setApprovalForAll(address operator, bool approved) public {  // II, change external for public, warning?\n    require(operator != msg.sender);\n\n    _operatorApprovals[msg.sender][operator] = approved;\n    emit ApprovalForAll(msg.sender, operator, approved);\n  }\n\n  function getApproved(uint256 tokenId) public view returns (address){ // II, change external for public, warning?\n    require(tokenId < owlCats.length); // token must exist\n\n    return owlCatIndexToApproved[tokenId]; // return address(0) automatically if the mapping isn't set\n  }\n \n  function isApprovedForAll(address owner, address operator) public view returns (bool){ // II, change external for public, warning?\n    return _operatorApprovals[owner][operator];\n  }\n\n  function _approve(uint256 _tokenId, address _approved) internal { // II\n    owlCatIndexToApproved[_tokenId] = _approved;\n  }\n\n  function safeTransferFrom(address _from, address _to, uint256 _tokenId, bytes memory _data) public{ // IV, change external for public, warning?\n    require( _isApprovedOrOwner(msg.sender, _from, _to, _tokenId));\n    _safeTransfer(_from, _to, _tokenId, _data);\n  }\n\n  function safeTransferFrom(address _from, address _to, uint256 _tokenId) public{ // IV, change external for public, warning?\n    safeTransferFrom(_from, _to, _tokenId, \"\");\n  }\n\n  function transferFrom(address _from, address _to, uint256 _tokenId) public{  // III, change external for public, warning?\n    //require(_to != address(0));\n    //require(msg.sender == _from || _approvedFor(msg.sender, _tokenId) || isApprovedForAll(_from, msg.sender));\n    //require(_owns(_from, _tokenId));\n    //require(_tokenId < owlCats.length);\n    require(_isApprovedOrOwner(msg.sender, _from, _to, _tokenId)); // IV\n    _transfer(_from, _to, _tokenId);\n  }\n  // if claimant have approuval then True\n  function _approvedFor(address _claimant, uint256 _tokenId) internal view returns(bool){  //III\n    return owlCatIndexToApproved[_tokenId] == _claimant;\n  }\n\n  function _checkERC721Support(address _from, address _to, uint256 _tokenId, bytes memory _data) internal returns (bool){ // III\n    if(!_isContract(_to))\n      return true;\n    //Call onERC721Received in the _to contract\n    bytes4 returnData = IERC721Receiver(_to).onERC721Received(msg.sender, _from, _tokenId, _data); // III\n    return returnData == MAGIC_ERC721_RECEIVED; //Check return value     \n  }\n\n  function _isContract(address _to) view internal returns(bool){ // III\n    //check code zize > 0 so it is a contract\n    uint32 size;\n    assembly{\n      size := extcodesize(_to)\n    }\n\n    return size > 0;\n  }\n\n  function _isApprovedOrOwner(address _spender, address _from, address _to, uint256 _tokenId) internal view returns(bool){\n    require(_tokenId < owlCats.length); // token must exist\n    require(_to != address(0)); // _to address is not zero address\n    require(_owns(_from, _tokenId)); // _from owns the token\n   \n    //spender is _from OR spender is approved for tokenId OR spender is operator for _from\n    return (_spender == _from || _approvedFor(_spender, _tokenId) || isApprovedForAll(_from, _spender));\n  }\n\n  /* function _mixDna(uint256 _dadDna, uint256 _mumDna) internal pure returns (uint256){ // less randomness V\n    // dadDna: 11 22 33 44 55 66 77 88\n    // mumDna: 89 78 67 56 45 34 23 12\n\n    uint256 firstHalf = _dadDna / 100000000; // 11223344\n    uint256 secondHalf = _mumDna % 100000000; // 45342312\n\n    // Exo: 10 concatenate to 20 => 10 * 100 = 1000 => 1000 + 20 = 1020\n\n    uint256 newDna = firstHalf * 100000000;\n    newDna = newDna + secondHalf; // 1122334445342312\n\n    return newDna;\n  } */\n\n  function _mixDna(uint256 _dadDna, uint256 _mumDna) internal view returns (uint256){ // VI fix it\n    uint256[8] memory geneArray;\n\n    uint8 random = uint8( block.timestamp % 255 ); // 0-255 => 000000 - 11111111\n    uint256 i;\n    uint256 index = 7; \n\n    for(i = 1; i <= 128; i = i*2){\n      if(random & i != 0){\n        geneArray[index] = uint8( _mumDna % 100);\n      }\n      else{\n        geneArray[index] = uint8( _dadDna % 100);\n      }\n      _mumDna = _mumDna / 100;\n      _dadDna = _dadDna / 100;\n\n      //index-- does not work, we don't want 00 in the last iteration\n      if(i != 128){\n        index = index-1;\n      }\n    }    \n\n    uint256 newGene;\n\n    for(i = 0; i < 8; i++){\n      newGene = newGene + geneArray[i];\n      if(i != 7){\n        newGene = newGene * 100;\n      }\n    }\n    \n    return newGene;\n  }\n}",
  "sourcePath": "/home/samael/Documents/ethereum/Kitties_NFT/OwlCat_Project/8_owlCatNFT-master1/contracts/OwlCatContract.sol",
  "compiler": {
    "name": "solc",
    "version": "0.8.11+commit.d7f03943.Emscripten.clang"
  },
  "schemaVersion": "3.4.4",
  "updatedAt": "2022-04-21T22:18:05.565Z",
  "networkType": "ethereum",
  "devdoc": {
    "kind": "dev",
    "methods": {
      "balanceOf(address)": {
        "details": "Returns the number of tokens in ``owner``'s account."
      },
      "ownerOf(uint256)": {
        "details": "Returns the owner of the `tokenId` token. Requirements: - `tokenId` must exist."
      },
      "safeTransferFrom(address,address,uint256)": {
        "details": "This works identically to the other function with an extra data parameter,  except this function just sets data to \"\".",
        "params": {
          "_from": "The current owner of the NFT",
          "_to": "The new owner",
          "_tokenId": "The NFT to transfer"
        }
      },
      "transferFrom(address,address,uint256)": {
        "details": "Throws unless `msg.sender` is the current owner, an authorized  operator, or the approved address for this NFT. Throws if `_from` is  not the current owner. Throws if `_to` is the zero address. Throws if  `_tokenId` is not a valid NFT.",
        "params": {
          "_from": "The current owner of the NFT",
          "_to": "The new owner",
          "_tokenId": "The NFT to transfer"
        }
      }
    },
    "version": 1
  },
  "userdoc": {
    "kind": "user",
    "methods": {
      "safeTransferFrom(address,address,uint256)": {
        "notice": "Transfers the ownership of an NFT from one address to another address"
      },
      "transferFrom(address,address,uint256)": {
        "notice": "Transfer ownership of an NFT -- THE CALLER IS RESPONSIBLE  TO CONFIRM THAT `_to` IS CAPABLE OF RECEIVING NFTS OR ELSE  THEY MAY BE PERMANENTLY LOST"
      }
    },
    "version": 1
  }
}